:100000000C94EA000C9414010C9414010C94140147
:100010000C9414010C9414010C9414010C9414010C
:100020000C9414010C9414010C94B20E0C940E0F49
:100030000C9414010C9414010C9414010C941401EC
:100040000C9414010C9414010C9414010C941401DC
:100050000C9414010C9414010C9414010C946D0C68
:100060000C9414010C9414010C9414010C941401BC
:100070000C9414010C9414010C9414010C941401AC
:100080000C9414010C9414010C9414010C9414019C
:100090000C9414010C941401012902290429082943
:1000A0001029202940298029012C022C0126022612
:1000B000042608261026202640268026402C802C48
:1000C0000123022304230823102320234023802319
:1000D0000120022004200820102020204020802021
:1000E000102C202C012F022F042F082F102F202F2F
:1000F000402F802F7EFE7EFD7EFB7EF77EEF7EDF33
:100100007EBF7E7F00010000380112000200004A1D
:100110000143000300008D0104010309049101184B
:1001200002030904AB011603030904C3010C000117
:10013000C102018036018136120100020200002056
:10014000C0168304000101020301090243000201F9
:1001500000C0320904000001020201000524001061
:1001600001052401010104240206052406000107FB
:1001700005820308004009040100020A000000078C
:100180000503024000000705840240000004030943
:100190000418035400650065006E00730079006464
:1001A00000750069006E006F0000001603550053D3
:1001B0000042002000530065007200690061006C7D
:1001C0000000000C03310032003300340035000021
:1001D00000000F0E11241FBECFEFD0E2DEBFCDBF57
:1001E00011E0A0E0B1E0EEE8F3E200E00BBF02C0F6
:1001F00007900D92A632B107D9F711E0A6E2B1E05F
:1002000001C01D92AA38B107E1F711E0C4EDD1E0B9
:1002100004C02297FE010E94BC10C23DD107C9F75D
:100220000E9474090C94C5110C940000AC0130912B
:100230007601A6E2B1E020E00CC0ED91FD91E65B15
:10024000FF4F8081EA54F04090E08417950729F031
:100250002F5F231790F3E0E0F0E0CF010895982F8F
:100260008823E9F061157105D1F0E6E4F1E020E0C2
:1002700030E08081882361F4F901EE0FFF1FE20F67
:10028000F31FEA5BFE4F908372836183822F089590
:100290002F5F3F4F33962031310559F708958FEF87
:1002A0000895FF920F931F938C010A5B1F4FD80193
:1002B000ED91FC91E85BFF4F808191810E94090ED6
:1002C000F82ED801ED91FC91E85BFF4F8081918180
:1002D0000E94090E3F2D20E0280F391FC9011F91F0
:1002E0000F91FF900895EF92FF920F931F93DF936A
:1002F000CF9300D000D00F92CDB7DEB78C01E62EA1
:100300000A5B1F4FD801ED91FC9106541040E85B49
:10031000FF4F808191810E94090EF82EC8010E9432
:100320005101B1E0FB1641F40B581F4FD801ED917C
:10033000FC91E80FF91F51C0B2E0FB1691F40B5885
:100340001F4FD801ED91FC91E80FF91F2181908199
:1003500080E0820F911D9C01442737FD4095542F6A
:1003600041C09C0140E050E0B4E0FB1681F4EE2077
:10037000C9F5880F991F880F991F080F191F035B74
:100380001F4FF80120813181428153812BC0F3E05E
:10039000FF1641F5EE2071F0880F991F880F991F05
:1003A000080F191F035B1F4FD8012D913D914D91EF
:1003B0005C9118C0FC01EE0FFF1FEE0FFF1FE00F56
:1003C000F11FE35BFF4F0B581F4FD8014D915C911C
:1003D00080819181480F591FFA018081282F30E0D8
:1003E00040E050E02A833B834C835D83322F4B8176
:1003F0005C816D812F2D70E080E090E00F900F9078
:100400000F900F900F90CF91DF911F910F91FF9060
:10041000EF9008956F927F928F929F92AF92BF92CA
:10042000CF92DF92EF92FF920F931F93DF93CF93C0
:10043000CDB7DEB72F970FB6F894DEBF0FBECDBF96
:100440005C0146E4E42EF12CE80EF91ED701ED9193
:10045000FC91E85BFF4F808191810E94090E182F6B
:10046000D701ED91FC91E85BFF4F808191810E9463
:100470000C0E892B09F0F1C41F3009F471C1103141
:1004800098F41C3040F4153020F5812F81508230D3
:1004900008F0DCC41EC034E4C32ED12CCA0CDB1C13
:1004A0001C3009F02DC105C1133109F4DBC314312F
:1004B00038F4113109F429C2123108F08EC3BCC1DD
:1004C000153109F462C4153108F406C4163109F077
:1004D000BDC4E6E4F0E0AE0EBF1ED501ED91FC9187
:1004E0002AEB3FEFA20EB31EE85BFF4F80819181A4
:1004F0000E94090E4C01C50160E00E9473012B8728
:100500003C874D875E876F87DE011196FE013B9623
:1005100085E001900D928150E1F7CA80DB80EC808C
:10052000FD8044E450E0A40EB51ED5018C91ECEBA7
:10053000FFEFAE0EBF1E882309F488C4113091F47A
:10054000F401EE0FFF1FEE0FFF1FEA0DFB1DE35B33
:10055000FF4F80819181A281B3818C0D9D1DAE1DC5
:10056000BF1D81C0123091F4F401EE0FFF1FEE0F9A
:10057000FF1FEA0DFB1DE35BFF4F80819181A2818C
:10058000B3818C199D09AE09BF096DC0153099F46E
:100590008401000F111F000F111F0A0D1B1D035BAB
:1005A0001F4FD8016D917D918D919C91A70196016E
:1005B0000E94791078C01630D9F48401000F111F01
:1005C000000F111F0A0D1B1D035B1F4F96014427CF
:1005D00037FD4095542FD8016D917D918D919C915F
:1005E0000E949810F80120833183428353832EC4E4
:1005F000173091F4F401EE0FFF1FEE0FFF1FEA0D0D
:10060000FB1DE35BFF4F80819181A281B3818C252B
:100610009D25AE25BF2527C0183091F4F401EE0FBB
:10062000FF1FEE0FFF1FEA0DFB1DE35BFF4F8081F5
:100630009181A281B3818C299D29AE29BF2913C044
:100640001930B1F4F401EE0FFF1FEE0FFF1FEA0D9A
:10065000FB1DE35BFF4F80819181A281B3818C21DF
:100660009D21AE21BF2180839183A283B383EEC3FA
:100670001A3009F4EBC31B3009F4E8C3163109F052
:10068000E5C38401000F111F000F111F0A0D1B1D70
:10069000035B1F4FD8016D917D918D919C91A701B6
:1006A00096010E949810F80160837183828393837E
:1006B000CDC3C5010E9451019C01D6018C918823B4
:1006C00009F4C4C3F701A081B181A85BBF4F43E423
:1006D00050E0A40EB51EF50180814DEB5FEFA40E36
:1006E000B51E90E0FC01EE0FFF1FE80FF91FEE0FA3
:1006F000FF1FEA0DFB1D40855185420F531F5EC24F
:10070000D701ED91FC91E85BFF4F808191810E94C0
:10071000090E9C01F6018081882309F497C3C90161
:10072000880F991F880F991F1D3069F4F501E80F94
:10073000F91FE35BFF4F80819181A281B381019614
:10074000A11DB11D90CFF501E80FF91FE35BFF4F2D
:1007500080819181A281B3810197A109B10983CFE1
:10076000D701ED91FC91E85BFF4F808191810E9460
:10077000090ED82EC50160E00E9473012B873C87CB
:100780004D875E876F87DE011196FE013B9685E0FF
:1007900001900D928150E1F7EA80FB800C811D8170
:1007A000C50160E00E9473012B873C874D875E87FF
:1007B0006F87DE011696FE013B9685E001900D9253
:1007C0008150E1F72F81388549855A85F501EC5B29
:1007D000FF4F8081882309F439C3DD2041F4108262
:1007E000E216F3060407150709F037C322C0B1E08B
:1007F000DB1649F41082E216F3060407150709F424
:100800002CC3D0822AC362E0D61641F410822E1582
:100810003F054007510708F420C30BC073E0D7160B
:1008200009F01BC31082E216F3060407150708F44B
:1008300014C381E0808311C3C50161E00E9473018C
:100840002B873C874D875E876F87DE011696FE01FA
:100850003B9685E001900D928150E1F7EF80F8849E
:1008600009851A85DE80C50160E00E9473012B872F
:100870003C874D875E876F87DE011196FE013B96B0
:1008800085E001900D928150E1F74A815B816C8196
:100890007D8184E490E0A80EB91ED5018C91ECEB2B
:1008A000FFEFAE0EBF1E882309F4D0C2F4E0DF16BE
:1008B00071F4F701EE0FFF1FEE0FFF1FEA0DFB1D96
:1008C000E35BFF4F4083518362837383BFC2950113
:1008D0002B583F4F82E0D81689F4D901ED91FC9155
:1008E000EE0DFF1DBB27A72F962F852F8083D901E3
:1008F000ED91FC91EE0DFF1D4183A8C2D901ED9150
:10090000FC91EE0DFF1D4083A1C2C5010E94510163
:10091000AC01E4E4F0E0AE0EBF1ED5018C91ECEB2F
:10092000FFEFAE0EBF1E882309F490C222E430E030
:10093000A20EB31ED5011C92EEEBFFEFAE0EBF1E52
:10094000CA018070907C892B51F4F701A081B1819C
:100950003C9120E088249924BA0170703AC1BA0110
:1009600060707F7330917601E6E2F1E020E011C023
:10097000819091908AE490E0880E991ED4018C9128
:10098000A6EBBFEF8A0E9B1E90E08617970721F01B
:100990002F5F231768F35AC28114910409F456C2D9
:1009A000F401308120E066247724BA01707096C08B
:1009B000A3014C5F5F4FD4011296ED91FC91139708
:1009C000E60DF71D808191818617970709F084C095
:1009D00023E4E22EF12CEA0CFB1CF701008110E06D
:1009E00096E4C92ED12CCA0CDB1CD601ED91FC91EA
:1009F000E85BFF4F808191810E940D0EF801EE0FA0
:100A0000FF1FE00FF11FEE0FFF1FEA0DFB1D7387A5
:100A10006287F7012081822F90E00196FC01EE0FA2
:100A2000FF1FE80FF91FEE0FFF1FEA0DFB1DD60198
:100A30008D919C911197918380832F5FF701208383
:100A40008D929C9230E02F5F3F4FF901EE0FFF1F18
:100A5000E20FF31FEE0FFF1FEA0DFB1D9182808254
:100A6000D7018C9190E0D4011296ED91FC911397EF
:100A7000E60DF71D22813381FC01EE0FFF1FE80F09
:100A8000F91FEE0FFF1FEA0DFB1D33872287318709
:100A90002087F601A081B181A85BBF4FF70180815B
:100AA00090E0FC01EE0FFF1FE80FF91FEE0FFF1F94
:100AB000EA0DFB1D4285538560E070E08D919C91AD
:100AC00021E030E00E940B0E25E430E0A20EB31EC0
:100AD00081E0D5018C93C1C02F5F3A01231708F440
:100AE00067CFB4C1A4014C5F5F4F1296ED91FC91AA
:100AF0001397E80DF91D808191818617970709F0FA
:100B000066C0E3E4EE2EF12CEA0CFB1CF7018081B9
:100B100090E00196FC01EE0FFF1FE80FF91FEE0FAA
:100B2000FF1FEA0DFB1DB183A083D7010C9156E492
:100B3000C52ED12CCA0CDB1CD601ED91FC91E85BD3
:100B4000FF4F808191810E940D0E202F30E0F9012E
:100B5000EE0FFF1FE20FF31FEE0FFF1FEA0DFB1D4D
:100B6000738762870F5FF701008310E0F601A081B1
:100B7000B1811296ED91FC911397E80DF91D8281D8
:100B80009381F801EE0FFF1FE00FF11FEE0FFF1F23
:100B9000EA0DFB1D9387828791878087A85BBF4FF3
:100BA000F701808190E0FC01EE0FFF1FE80FF91FB5
:100BB000EE0FFF1FEA0DFB1D4285538560E070E0DC
:100BC0008D919C9121E030E00E940B0E3FC12F5F80
:100BD0004A01231708F486CF39C124E430E0A20E7D
:100BE000B31ED5018C91ECEBFFEFAE0EBF1E882338
:100BF00009F42CC1F501ED5BFF4F808181508083AA
:100C000090E09C012F5F3F4FF901EE0FFF1FE20FB5
:100C1000F31FEE0FFF1FEA0DFB1DA081B181F7014D
:100C2000B183A083A85BBF4FFC01EE0FFF1FE80F4D
:100C3000F91FEE0FFF1FEA0DFB1D4285538560E093
:100C400070E08D919C9121E030E00E940B0E25E434
:100C500030E0A20EB31ED5011C92EBEBFFEFAE0EFF
:100C6000BF1EF4C0C50160E00E9473012B873C8762
:100C70004D875E876F87DE011196FE013B9685E00A
:100C800001900D928150E1F724E430E0A20EB31EF2
:100C9000D5018C91ECEBFFEFAE0EBF1E882309F45B
:100CA000D5C0A5014E5B5F4FDA012C91E22FF0E039
:100CB000EE0FFF1FEE0FFF1FEA0DFB1DE35BFF4F63
:100CC0008A819B81AC81BD8180839183A283B38320
:100CD0002F5FFA012083BAC0C50161E00E94730151
:100CE0002B873C874D875E876F87DE011196FE015B
:100CF0003B9685E001900D928150E1F7EA80FB8000
:100D00000C811D81C50160E00E9473012B873C8727
:100D10004D875E876F87DE011696FE013B9685E064
:100D200001900D928150E1F79F81288539854A8590
:100D300064E470E0A60EB71ED5018C91ECEBFFEFDA
:100D4000AE0EBF1E882309F481C08981843071F4FE
:100D5000F701EE0FFF1FEE0FFF1FEA0DFB1DE35B18
:100D6000FF4F908321833283438370C025E730E0B7
:100D7000A20EB31ED501ED91FC912BE83FEFA20E20
:100D8000B31EEE0DFF1D908361C0C50160E00E949F
:100D900073012B873C874D875E876F87DE01169630
:100DA000FE013B9685E001900D928150E1F7CF80E6
:100DB000D884E984FA8444E450E0A40EB51ED50139
:100DC0008C91ECEBFFEFAE0EBF1E882309F43EC002
:100DD00022E430E0A20EB31ED5011C92EEEBFFEF31
:100DE000AE0EBF1EF1E0CF16D104E104F104A9F468
:100DF000F501E35BFF4F80819181A281B381813056
:100E00009105A105B10511F10297A105B105F1F414
:100E100086E391E0A0E0B0E026CC06E411E0D80142
:100E20008C9190E0A0E0B0E0C816D906EA06FB0677
:100E300039F4D8011196ED91FC911297C5010995ED
:100E40000D5F1F4FB1E006371B0749F7E4E4F0E000
:100E5000AE0EBF1E81E0D5018C932F960FB6F8948D
:100E6000DEBF0FBECDBFCF91DF911F910F91FF90DD
:100E7000EF90DF90CF90BF90AF909F908F907F903A
:100E80006F9008950F931F93CF93DF93EC018981A7
:100E9000807C99F08A859B85892B29F40EC0CE0130
:100EA0000E940A0203C08E01085B1F4FF801808177
:100EB00091810E940C0E892B91F3DF91CF911F91AC
:100EC0000F910895DF92EF92FF920F931F93CF93AC
:100ED000DF93EC017B01CB58DF4FE881F981C557E7
:100EE000D040E60FF71F00E010E081910F5F1F4F29
:100EF0008823D9F7C8010E94C0109C01D82E40E079
:100F000050E0CB58DF4F0BC0F901E40FF51FA8816B
:100F1000B981A60FB71F8C9180834F5F5F4FBA01D5
:100F20006E0D7F1D4017510778F38D2DDF91CF9106
:100F30001F910F91FF90EF90DF9008958F929F92F5
:100F4000AF92BF92CF92DF92EF92FF920F931F93D7
:100F5000CF93DF93EC01CB01FE01EA5BFF4FD1831E
:100F6000C08360E071E00E94080E8E01085B1F4F95
:100F7000D8018D939C930E94090EF82EF3948F2D27
:100F800090E00E94C010FE01E55BFF4F80839183DB
:100F9000F801408151816F2D70E00E940A0ED80146
:100FA0008D919C910E94090E8883F8018081918126
:100FB0000E94090E8983888190E0880F991F880F0D
:100FC000991F0E94C0108A839B83DD241BC00D2DB6
:100FD00010E0000F111F000F111FEA80FB80E00ED0
:100FE000F11ECE010E945101D7018D939C938A81FD
:100FF0009B81080F191FCE010E945101F8019383B4
:101000008283D3948881D81610F3CE010E945101B7
:101010005C01CE010E9451019D838C83CE01835BD4
:101020009F4FFC0188E2DF011D928A95E9F7CE010E
:101030000696FC018CE3DF011D928A95E9F7CE5BF1
:10104000DF4F1882229681E089931882C554D040E0
:101050008C819D810E94C010FE01EB58FF4F808360
:101060009183FF2468E4862E912C8C0E9D1E6F01C7
:101070000DC0F60100811181020F131FD4018D9163
:101080009C910E94090EF8018083F3942F2D30E08B
:101090008C819D812817390760F3CD5BDF4F188263
:1010A000C354D040DF83CE83B986A886BB86AA8688
:1010B000A50160E070E0D4018D919C9121E030E0C9
:1010C0000E940B0E9981892F807C31F0C65BDF4F27
:1010D0009F739883CA54D04080917601E82FF0E046
:1010E000EE0FFF1FEA5DFE4FD183C0838F5F8093B9
:1010F0007601DF91CF911F910F91FF90EF90DF90DC
:10110000CF90BF90AF909F908F9008958F929F92B5
:10111000AF92BF92CF92DF92EF92FF920F931F9305
:10112000CF93DF93EC01CB01FE01EA5BFF4FD1834C
:10113000C08360E071E00E94080E8E01085B1F4FC3
:10114000D8018D939C930E94090EF82EF3948F2D55
:1011500090E00E94C010FE01E55BFF4F8083918309
:10116000F801408151816F2D70E00E940A0ED80174
:101170008D919C910E94090E8883F8018081918154
:101180000E94090E8983888190E0880F991F880F3B
:10119000991F0E94C0108A839B83DD241BC00D2DE4
:1011A00010E0000F111F000F111FEA80FB80E00EFE
:1011B000F11ECE010E945101D7018D939C938A812B
:1011C0009B81080F191FCE010E945101F8019383E2
:1011D0008283D3948881D81610F3CE010E945101E6
:1011E0005C01CE010E9451019D838C83CE01835B03
:1011F0009F4FFC0188E2DF011D928A95E9F7CE013D
:101200000696FC018CE3DF011D928A95E9F7CE5B1F
:10121000DF4F1882229681E089931882C554D0400E
:101220008C819D810E94C010FE01EB58FF4F80838E
:101230009183FF24B8E48B2E912C8C0E9D1E6F01A0
:101240000DC0F60100811181020F131FD4018D9191
:101250009C910E94090EF8018083F3942F2D30E0B9
:101260008C819D812817390760F3CD5BDF4F188291
:10127000C354D040DF83CE83B986A886BB86AA86B6
:10128000A50160E070E0D4018D919C9121E030E0F7
:101290000E940B0E9981892F807C31F0C65BDF4F55
:1012A0009F739883CA54D04080917601E82FF0E074
:1012B000EE0FFF1FEA5DFE4FD183C0838F5F8093E7
:1012C0007601DF91CF911F910F91FF90EF90DF900A
:1012D000CF90BF90AF909F908F900895FB0109959C
:1012E0000895FB0109950895EF92FF920F931F93C4
:1012F000DF93CF93CDB7DEB7CE5ED0400FB6F89474
:10130000DEBF0FBECDBF06E211E082E090E00E949A
:10131000C010F801808391830E5F1F4FF1E0063407
:101320001F0799F77E010894E11CF11CC70163E0D7
:1013300071E00E949E078E0108581F4FC8016EE0A1
:1013400071E00E949E07C7010E944207F02EE12E25
:101350008E0100541F4F04C08F2D9E2D0E940A0243
:10136000F801808191810E940C0E892BA9F380E005
:1013700090E0C251DF4F0FB6F894DEBF0FBECDBF75
:10138000CF91DF911F910F91FF90EF900895382F2B
:101390008652883010F4382F02C0383068F420911B
:1013A0007E0081E090E0032E02C0880F991F0A940E
:1013B000E2F7282B20937E003F7180911701832B49
:1013C00080937C0080917A00806480937A00809181
:1013D0007A0086FDFCCF2091780040917900942F0F
:1013E00080E030E0282B392BC90108958E3270F44B
:1013F000E8E9F0E0880FE80FF11D9591E491F0E045
:101400002FB7F8948181892B81832FBF08958E3265
:1014100028F5982F9652983020F0A0E0B0E03FEFEA
:1014200008C0E4EFF0E0990FE90FF11DA591B0E0DD
:101430003591E8E9F0E0880FE80FF11D9591E4910E
:10144000F0E02FB7F8948181909589238183828180
:10145000892382838C9183238C932FBF08958E32AE
:1014600030F5982F9652983020F0A0E0B0E04FEF82
:1014700008C0E4EFF0E0990FE90FF11DA591B0E08D
:101480004591E8E9F0E0880FE80FF11D2591E4911E
:10149000F0E03FB7F8948181922F90958923818362
:1014A0008281822B82838C9184238C933FBF089509
:1014B000613019F40E94F6090895623019F40E940F
:1014C0002F0A08950E94070A0895002041F001C0E4
:1014D0000895EE32E8F7EE0FEB58F54F0994EE322F
:1014E000B8F7EE0FEF52F54F0994589AB6C0599AD3
:1014F000D0C05A9A08955B9A08955C9A08955D9AAF
:1015000008955E9A08955F9A0895709A0895719A61
:101510000895409A0895419A0895429A0895439AE9
:101520000895449AC8C0459AC0C0469AB8C0479A20
:101530000895769A0895779A0895289A0895299A91
:1015400008952A9A08952B9A08952C9A9CC02D9A52
:1015500088C02E9A8CC02F9A90C0109A0895119A24
:101560000895129A0895139A0895149A0895159A51
:101570000895169A0895179A0895749A0895759A79
:101580000895889A0895899A08958A9A08958B9A59
:1015900008958C9A08958D9A08958E9A08958F9A39
:1015A000089558985AC0599874C05A9808955B98ED
:1015B00008955C9808955D9808955E9808955F98E1
:1015C00008957098089571980895409808954198E5
:1015D0000895429808954398089544986CC045989A
:1015E00064C046985CC047980895769808957798A7
:1015F000089528980895299808952A9808952B9871
:1016000008952C9840C02D982CC02E9830C02F984B
:1016100034C0109808951198089512980895139859
:101620000895149808951598089516980895179890
:1016300008957498089575980895889808958998DC
:1016400008958A9808958B9808958C9808958D9898
:1016500008958E9808958F980895E4B5EF7DE4BDC0
:101660000895E0918000EF77E09380000895E09185
:101670008000EF7DE09380000895E0918000E77F97
:10168000E09380000895E091B000EF77E093B00020
:101690000895E091B000EF7DE093B0000895E091EF
:1016A0009000EF77E09390000895E0919000EF7D37
:1016B000E09390000895E0919000E77FE093900020
:1016C0000895EE3258F4EE0FEE0FFF27EC3718F4C2
:1016D000EE58F44F0994EC58F44F0994EE2708950E
:1016E000E1E00895E9B1E170D9F70895E9B1E27058
:1016F000B9F70895E9B1E47099F70895E9B1E87090
:1017000079F70895E9B1E07159F70895E9B1E07208
:1017100039F70895E9B1E07419F70895E9B1E0786F
:10172000F9F60895ECB1E170D9F60895ECB1E270E4
:10173000B9F60895E6B1E17099F60895E6B1E27060
:1017400079F60895E6B1E47059F60895E6B1E870C7
:1017500039F60895E6B1E07119F60895E6B1E07240
:10176000E9F50895E6B1E074C9F50895E6B1E078C9
:10177000A9F50895ECB1E07489F50895ECB1E0782D
:1017800069F50895E3B1E17049F50895E3B1E270B8
:1017900029F50895E3B1E47009F50895E3B1E8701F
:1017A000E9F40895E3B1E071C9F40895E3B1E0729A
:1017B000A9F40895E3B1E07489F40895E3B1E07801
:1017C00069F40895E0B1E17049F40895E0B1E27080
:1017D00029F40895E0B1E47009F40895E1E0089572
:1017E000E0B1E870D9F70895E0B1E071B9F7089574
:1017F000E0B1E07299F70895E0B1E07479F70895E7
:10180000E0B1E07859F70895ECB1E07139F7089547
:10181000ECB1E07219F70895EFB1E170F9F60895AF
:10182000EFB1E270D9F60895EFB1E470B9F608951A
:10183000EFB1E87099F60895EFB1E07179F6089587
:10184000EFB1E07259F60895EFB1E07439F60895FA
:10185000EFB1E07819F608951DBA109268001CBC2B
:1018600010BE1FBA10927A0010926E0010926F0094
:1018700010927000109271001092C9001092BC007A
:1018800011B814B817B81AB81DB810BA12B815B8EC
:1018900018B81BB81EB811BA0895F89480E29EE4F7
:1018A0000197F1F781E08093E00080E28093D80017
:1018B0001092C90080E69AEE0197F1F70E942C0C75
:1018C0000C9400FE0895F8940E942C0C80E69AEE89
:1018D0000197F1F70C94000008958F938FB78F93C1
:1018E00080917F018D5F8D37D0F480937F0180914F
:1018F0007B018F5F80937B01D8F080917C018F4FBB
:1019000080937C01A8F080917D018F4F80937D01B1
:1019100078F080917E018F4F80937E0109C08A57B5
:1019200080937F0180917B018E5F80937B0128F7FC
:10193000809177018C5F8093770158F080917801D6
:101940008F4F8093780128F0809179018F4F809399
:1019500079018F918FBF8F9118959B01AC010E94E7
:10196000C60CFB010DC00E94C60C6E1B7F0B685E8F
:101970007340C8F32150304040405040E851FC4F84
:10198000211531054105510571F708950FB6F894F9
:1019900066B515B2709177018091780190917901C7
:1019A0000FBE10FE05C06F3F19F07C5F8F4F9F4F39
:1019B00011240024660F001C660F001C7029089576
:1019C00040E890E020E030E070E0A82FB0E0FB01BC
:1019D0000E94690AFD010E94610BE111942BFB0139
:1019E0000E946F0A46952F5F3F4F2830310579F7E7
:1019F000892F089541E090E020E030E070E0A82FCA
:101A0000B0E0FB010E94690AFD010E94610BE11137
:101A1000942BFB010E946F0A440F2F5F3F4F283029
:101A2000310579F7892F0895442319F40E94FA0C9F
:101A300008950E94E00C089590E820E030E0A82F7F
:101A4000B0E070E0892F8423FD01082E0E94650A12
:101A5000FB010E94690AFB010E946F0A96952F5FA5
:101A60003F4F2830310571F7089591E020E030E0D4
:101A7000A82FB0E070E0892F8423FD01082E0E947A
:101A8000650AFB010E94690AFB010E946F0A990F17
:101A90002F5F3F4F2830310571F70895442321F41B
:101AA000422F0E94350D0895422F0E941C0D08956B
:101AB0001F93CF93DF93182FEB010E94F60910318B
:101AC00009F44FC0113160F4113009F442C01130F3
:101AD000A8F01E3009F455C01F3009F05CC049C0A1
:101AE0001931B9F01A3120F4183109F054C02BC063
:101AF0001A31B9F01B3109F04EC01DC0209721F4F6
:101B0000589884B58F7D03C0C8BD84B5806284BDFC
:101B10004CC0D0938900C093880080918000806879
:101B200007C0D0938B00C0938A00809180008062B0
:101B3000809380003AC0D0938D00C0938C00809138
:101B400080008860F5CFC093B3008091B0008068BA
:101B500005C0C093B4008091B00080628093B00053
:101B600024C0D0939900C093980080919000806821
:101B70000FC0D0939B00C0939A0080919000806228
:101B800007C0D0939D00C0939C0080919000886016
:101B9000809390000AC0E12FF0E0C038D1051CF41A
:101BA0000E946F0A02C00E94690ADF91CF911F91C3
:101BB0000895F894E1E6F0E020E82083108283E0C5
:101BC00084BD85BDEEE6F0E080818160808391E098
:101BD0009093800082E0809381009093B000809386
:101BE000B100909390008093910086E880937A00F2
:101BF00020937B0010927E000E94830E78940895BB
:101C00000895DF93CF93CDB7DEB7CF91DF910895DD
:101C1000089508950895089508950895089582E80F
:101C200091E066E17EE00E947109089585E06CE133
:101C30007EE00E942F010895CF93DF93FC01EC0119
:101C4000C35BDF4F88819981AA81BB818130910577
:101C5000A105B10509F454C082309105A105B10573
:101C600099F59F012F5A3F4FD9014D915D916D918B
:101C70007C91413051056105710529F448835983F0
:101C80006A837B833DC04230510561057105C1F512
:101C900080E890E0A0E0B0E088839983AA83BB83CA
:101CA00080E490E0A0E0B0E0E90188839983AA8312
:101CB000BB83EB5AFF4F81E090E0A0E0B0E080836F
:101CC0009183A283B3831CC083309105A105B10524
:101CD000B9F084309105A105B10551F4EF5AFF4FD9
:101CE00060817181E155F040CF010E94620708C018
:101CF0000597A105B10521F4188219821A821B8269
:101D0000DF91CF9108958091D80087FF02C085FFB1
:101D10001BC081E88093D70080EA8093D80086E1D9
:101D200089BD09B400FEFDCF80E98093D8001092F0
:101D3000E00010928A0110928B011092850110929E
:101D4000E1008DE08093E20008951092E20081E0CE
:101D50008093E0001092D80019BC10928A01809301
:101D60008B0108951F920F920FB60F9211248F933B
:101D70009F938091E1001092E100982F83FF11C0A2
:101D80001092E90081E08093EB001092EC0082E277
:101D90008093ED0088E08093F00010928A01109209
:101DA000850192FF13C080918A01882379F0809188
:101DB0008301882359F0815080938301882331F473
:101DC00084E08093E9008AE38093E80090FF0CC0F0
:101DD00080E18093E20010928A0181E080938B0180
:101DE00080EA8093D80019BC80918B01882379F018
:101DF00094FF0DC086E189BD09B400FEFDCF80E9E6
:101E00008093D8008DE08093E20010928B019F9127
:101E10008F910F900FBE0F901F9018951F920F92E9
:101E20000FB60F920BB60F9211242F933F934F933F
:101E30005F936F937F938F939F93AF93BF93EF9332
:101E4000FF931092E9008091E80083FF3CC120914C
:101E5000F1009091F1004091F1005091F1006091FA
:101E6000F1007091F100A091F100B091F10082EFCA
:101E70008093E800963009F044C0E4E0F1E020E00F
:101E8000859195918417950711F0359617C0859126
:101E900095918617970711F0339610C025913591CB
:101EA0004491CD01AF3FB10519F010F08FEF90E0F4
:101EB000841708F4482FF9015EEF04C02F5F263025
:101EC000F9F601C18091E800282F30E0C901857042
:101ED0009070892BB9F322FDF9C0242F413208F00C
:101EE00020E2922F04C085918093F10091509923B4
:101EF000D1F7421B5093E800442321F7203211F31D
:101F0000E5C0953061F48EEF8093E8008091E800A1
:101F100080FFFCCF842F80688093E300D7C0993086
:101F200009F5222309F0CFC040938A011092850160
:101F3000109283018EEF8093E800EEE2F1E091E0F1
:101F40009093E90085918093EB00882331F085918F
:101F50008093EC0085918093ED009F5F953081F731
:101F60008EE1ACC0983061F4203809F0ACC08091AB
:101F7000E80080FFFCCF80918A018093F1007BC054
:101F80009132A9F4213A09F09EC08091E80080FFC7
:101F9000FCCF20E030E0F901E85EFE4F80818093C5
:101FA000F1002F5F3F4F27303105A9F764C0903211
:101FB00089F5213209F087C08091E80082FFFCCFCB
:101FC00020E030E08091F100F901E85EFE4F80836F
:101FD0002F5F3F4F27303105A9F78BEF8093E80043
:101FE0008EEF8093E8008091180190911901A091E3
:101FF0001A01B0911B0186389105A105B10511F4B4
:102000000E944D0C86399105A105B10509F05EC00D
:102010000E94630C923251F4213209F054C0409373
:1020200085018091E80080FFFCCF25C0933241F408
:10203000213209F048C08091E80080FFFCCF1BC02E
:102040009923E9F48091E80080FFFCCF223811F059
:1020500080E00DC06093E9008091EB0090E025E006
:10206000969587952A95E1F781701092E900809303
:10207000F1001092F1008EEF8093E80027C09130BC
:1020800011F0933001F52230F1F4452BE1F4262FC5
:102090002F77822F81508430B0F48EEF8093E80048
:1020A0002093E900933079F089E18093EB0081E09F
:1020B00090E002C0880F991F2A95E2F78093EA000A
:1020C0001092EA0003C081E28093EB00FF91EF9150
:1020D000BF91AF919F918F917F916F915F914F9140
:1020E0003F912F910F900BBE0F900FBE0F901F903E
:1020F0001895629FD001739FF001829FE00DF11D42
:10210000649FE00DF11D929FF00D839FF00D749F71
:10211000F00D659FF00D9927729FB00DE11DF91F1D
:10212000639FB00DE11DF91FBD01CF01112408957A
:10213000A1E21A2EAA1BBB1BFD010DC0AA1FBB1FCB
:10214000EE1FFF1FA217B307E407F50720F0A21B3D
:10215000B30BE40BF50B661F771F881F991F1A94AA
:1021600069F760957095809590959B01AC01BD01D4
:10217000CF010895EE0FFF1F0590F491E02D099413
:10218000CF93DF93BC018230910510F462E070E0E0
:10219000A0918801B0918901ED01E0E0F0E040E01C
:1021A00050E021C0888199818617970769F48A8158
:1021B0009B81309719F09383828304C090938901A7
:1021C00080938801FE0134C06817790738F44115FF
:1021D000510519F08417950708F4AC01FE018A81B6
:1021E0009B819C01E9012097E9F641155105A9F170
:1021F000CA01861B970B049708F4BA01E0E0F0E0EF
:102200002AC08D919C91119784179507F9F4641752
:10221000750781F412968D919C911397309719F060
:102220009383828304C09093890180938801FD0188
:1022300032964FC0CA01861B970BFD01E80FF91FAC
:102240006193719302978D939C9343C0FD018281AA
:1022500093819C01D9011097A1F6809186019091FC
:102260008701892B41F48091210190912201909363
:1022700087018093860140912301509124014115EB
:10228000510541F44DB75EB780911F019091200137
:10229000481B590B2091860130918701241735077F
:1022A000B0F4CA01821B930B8617970780F0AB012D
:1022B0004E5F5F4F8417950750F0420F531F5093A6
:1022C000870140938601F9016193719302C0E0E0B8
:1022D000F0E0CF01DF91CF910895CF93DF93009786
:1022E00009F450C0EC0122971B821A82A091880148
:1022F000B0918901109709F140E050E0AC17BD079B
:1023000008F1BB83AA83FE0121913191E20FF31FF3
:10231000AE17BF0779F48D919C911197280F391F43
:102320002E5F3F4F3983288312968D919C9113978E
:102330009B838A834115510571F4D0938901C09321
:10234000880120C012968D919C911397AD01009742
:1023500011F0DC01D3CFFA01D383C28321913191F3
:10236000E20FF31FCE17DF0769F488819981280FE8
:10237000391F2E5F3F4FFA01318320838A819B8171
:0E23800093838283DF91CF910895F894FFCF6D
:10238E007262006C69627374642E62696E007465A9
:10239E0073742E62696E004000E100000000082098
:0623AE00008C010000009C
:00000001FF
